:1000000000308A005B2B0000FF00030E8301A1007B
:100010000A08A0008A010408A2007708A300780853
:10002000A4007908A5007A08A6007B08A70083131E
:1000300083128C308400801E1F288C1A32282208DC
:1000400084002308F7002408F8002508F900260892
:10005000FA002708FB0020088A00210E8300FF0E0B
:100060007F0E09008A110A1298280A108A100A11B4
:10007000820728340C34013406340A108A100A111D
:1000800082074E346F3464346534573465346234D7
:100090004334743472346C342034763430342E3437
:1000A000313400340A108A100A11820755344E3454
:1000B0004134503420342D342034453450344934C4
:1000C000453400340A108A100A1182074034613422
:1000D00063346834613469346E34793461340034A3
:1000E0000A108A100A1182077B34223478342234B1
:1000F0003A342234253430343334753422342C34B9
:100100002234793422343A342234253430343334AE
:10011000753422342C3422347A3422343A34223462
:10012000253430343334753422347D340D34003486
:100130008C1EB4288C1E9A281A08CB004B08CC00C1
:100140004C080D3A031DAD283408B40A2F3E840034
:100150008313203080003514B4283408B40A2F3EAD
:10016000840083134C0880008C128A110A121F2805
:1001700042308400831300080319CB280630F800AE
:10018000F701F70BC128F80BC0287B30F700F70BFD
:10019000C728800BBE280034490EF039F7000F3015
:1001A000080577048800000008140330F700F70BF7
:1001B000D728081000340808F700080E0F39F80097
:1001C000003488100F3083160805F0388800831239
:1001D0000815000008140000DB207808C90008108A
:1001E00000000814F328F4280000DB207808C80079
:1001F00008100F308316080588008312490EF70097
:10020000F030F70577084804F8007808C800C81BE4
:10021000E228461C881046188814000008110000C7
:100220000810470EC8000F30C8054808C900CC2088
:1002300047080F39C800C900CC2000340F3083169E
:10024000080588000810881008118312881008110A
:1002500008100F30C200B8200130BB003B08033C3F
:10026000031C3A290330C900CC200530C200B82055
:10027000BB0A2E290230C900CC20BB013B08033C3D
:10028000031C4B293B083520BC00C6013C08C700B5
:10029000E120BB0A3E298A110A12782B4308013A51
:1002A00003195C29033A03195E29013A03196129EC
:1002B000073A031964296729C4016A294030C40038
:1002C0006A291030C4006A295030C4006A295030AD
:1002D000C4006A2901304202C40744088038C500BE
:1002E000C6014508C700E120003441080C3A031953
:1002F0008029063A03198A29023A03199129962975
:10030000C6010130C700E1200130AE000230C2005A
:10031000B8209C29AE0A0130C2002E08C3004E212D
:100320009C29C6011030C700E1209C290130C6007D
:100330004108C700E1209C290034BB013B08043C74
:10034000031CA9292F303B07840083138001BB0ABB
:100350009E29B40100340B138B138B1BAC29643022
:10036000C200B8209D213510B510351183168C16AA
:10037000C03083128B048A110A129F2B3E08AD00F5
:100380003D08AC003C08AB003B08AA008A110A12E9
:10039000DA2B40080739F700400CF800F80CF80C8D
:1003A0001F30F80578084207840083134318831729
:1003B000F801F80AF70ADD29F80DF70BDC29C10866
:1003C0000319E52978088004E829F80978088005E8
:1003D00000344208F80141020318F1294108F700EE
:1003E000FD29F7010830C300C10DF70D420877025F
:1003F0000318F700F80DC30BF429003478083F0800
:10040000C1006430C200E9217708BF0078083030AD
:10041000031D112AC01C182AC019182A401A20309E
:10042000142AC01140124014F8077808C100752141
:100430003F08C1000A30C200E9217708BF007808F0
:100440003030031D292AC0192D2A401C2D2A401A9C
:100450002030F8077808C10075213030BF073F0809
:10046000C100752100343B08840083133C188317B6
:100470000008BD0001303B07840083133C1883173C
:100480000008BE003E08683C031D682A17303D077F
:10049000BF00C0000130C100C301C201C9213F0833
:1004A000C000C101C3018030C200C9213D08313AFA
:1004B0000319612A033A0319632A013A0319652AC9
:1004C000672A3614672AB614672A3615672A882AD7
:1004D00017303D07BF00C000C101C301C201C921DF
:1004E0003F08C000C101C3018030C200C9213D08DE
:1004F000313A0319822A033A0319842A013A03196B
:10050000862A882A3610882AB610882A3611882A20
:100510000130C2000430C3004E213E30C1007521BD
:100520003608BF001B30C000FE218A110A12E12BE1
:10053000F801F901F701FA014108031DA22A400858
:100540000319BC2A1030C2000310BE0DBF0DF70DF9
:10055000FA0D41087A02031DAF2A40087702031CF6
:10056000B82A4008F702031CFA034108FA020314F0
:10057000F80DF90DC20BA42A00342D08BE002C087A
:10058000BD002B08BC002A08BB004130C200C630A9
:10059000C1004E30C0006D30BF002030C700C30125
:1005A000C401C501C6013E08FA003D08F9003C0837
:1005B000F8003B08F7000310771CEC2A3F08C3073C
:1005C00040080318400FC40741080318410FC5072E
:1005D00042080318420FC607C60CC50CC40CC30C56
:1005E000FA0CF90CF80CF70CC70BDB2A393077073B
:1005F000AA007808AB00303003183130AB07790817
:10060000AC00003003180130AC077A08AD000030B0
:1006100003180130AD072C08F7002D08F800F90188
:10062000FA012D08BD002C08BC002D08BF002C08C5
:10063000BE007F30C100FF30C00098227708F8006C
:100640007A08F900003478083E08C1006430C2001E
:10065000E9217708BE0078083030031D362BBF1C17
:100660003E2BBF193E2B3F1A2030392BBF113F12B2
:100670003F14F80778080C1E3B2B99003E08C10078
:100680000A30C200E9217708BE0078083030031D27
:100690004F2BBF19542B3F1C542B3F1A2030F80707
:1006A00078080C1E512B99003030BE073E080C1EF6
:1006B000572B99000034840183131F308305813048
:1006C00083169900A6309800903083129800831604
:1006D0001F149F141F159F1107309C008312A8013F
:1006E000A901B4013510B5103511B601B7011E29A5
:1006F0000C30C10075210130831685000910891066
:1007000009111F1383121F179F1783169F1383123C
:100710001F1483161F109F141F159F150030F8001B
:1007200083121F08C73978049F001F151F19962BC5
:100730001E08B7002130F700F70B9C2BAB290130C6
:10074000C200C3004E21BB013B083D20BB0AF7009D
:10075000C100752110303B02031DA42B0330C200E1
:100760000230C3004E21BB013B085220BB0AF700F8
:10077000C10075210B303B02031DB42B0430C200B5
:100780000330C3004E21BB013B086220BB0AF700C7
:10079000C100752109303B02031DC42B83160910CB
:1007A0008910091183128901BE01BD010130BC000D
:1007B000BB01BE29351CE22B3510BC012F30BB001C
:1007C000332A9D21BD227908BC007808BB00790836
:1007D000BF007808BE00C101FF30C0009822013080
:1007E0007707B900BD227908BC007808BB007908FA
:1007F000BF007808BE00C101FF30C0009822013060
:100800007707BA000030F8001F08C73978049F0046
:100810001F151F19092C1E08B7002130F700F70B10
:100820000F2CBB013B087020BB0AF70077080C1E99
:10083000172C990006303B02031D122C3908BE000C
:100840000330BF0023230A30BC003C087020BC0AE0
:10085000F70077080C1E2A2C990011303C02031D6A
:10086000252C3A08BE000330BF0023231530BD00FD
:100870003D087020BD0AF70077080C1E3D2C99003A
:100880001C303D02031D382C3708BE000330BF006A
:10089000232322300C1E4A2C99007D300C1E4E2C36
:1008A00099000D300C1E522C99000130C20004300A
:1008B000C3004E217830C10075213A30C100752146
:1008C0003908BF000330C000FE217930C100752116
:1008D0003A30C10075213A08BF000330C000FE2144
:1008E0007A30C10075213A30C10075213708BF0048
:1008F0000330C000FE21C830C200B820DA2B6300EC
:023E000000348C
:02400E00723FFF
:00000001FF
;PIC16F877A
;CRC=7A25  CREATED="24-Oct-13 21:31"
